{
  "contractName": "THICCETH",
  "abi": [
    {
      "inputs": [],
      "stateMutability": "nonpayable",
      "type": "constructor"
    },
    {
      "anonymous": false,
      "inputs": [
        {
          "indexed": true,
          "internalType": "address",
          "name": "owner",
          "type": "address"
        },
        {
          "indexed": true,
          "internalType": "address",
          "name": "spender",
          "type": "address"
        },
        {
          "indexed": false,
          "internalType": "uint256",
          "name": "value",
          "type": "uint256"
        }
      ],
      "name": "Approval",
      "type": "event"
    },
    {
      "anonymous": false,
      "inputs": [
        {
          "indexed": true,
          "internalType": "address",
          "name": "from",
          "type": "address"
        },
        {
          "indexed": true,
          "internalType": "address",
          "name": "to",
          "type": "address"
        },
        {
          "indexed": false,
          "internalType": "uint256",
          "name": "value",
          "type": "uint256"
        }
      ],
      "name": "Transfer",
      "type": "event"
    },
    {
      "anonymous": false,
      "inputs": [
        {
          "indexed": false,
          "internalType": "address",
          "name": "from",
          "type": "address"
        },
        {
          "indexed": false,
          "internalType": "address",
          "name": "to",
          "type": "address"
        },
        {
          "indexed": false,
          "internalType": "uint256",
          "name": "amount",
          "type": "uint256"
        },
        {
          "indexed": true,
          "internalType": "enum THICCETH.Step",
          "name": "step",
          "type": "uint8"
        }
      ],
      "name": "depositToken",
      "type": "event"
    },
    {
      "inputs": [
        {
          "internalType": "bytes32",
          "name": "",
          "type": "bytes32"
        }
      ],
      "name": "processedHashes",
      "outputs": [
        {
          "internalType": "bool",
          "name": "",
          "type": "bool"
        }
      ],
      "stateMutability": "view",
      "type": "function"
    },
    {
      "stateMutability": "payable",
      "type": "receive"
    },
    {
      "inputs": [],
      "name": "initContract",
      "outputs": [],
      "stateMutability": "nonpayable",
      "type": "function"
    },
    {
      "inputs": [],
      "name": "openTrading",
      "outputs": [],
      "stateMutability": "nonpayable",
      "type": "function"
    },
    {
      "inputs": [
        {
          "internalType": "address",
          "name": "to",
          "type": "address"
        },
        {
          "internalType": "uint256",
          "name": "amount",
          "type": "uint256"
        }
      ],
      "name": "deposit",
      "outputs": [],
      "stateMutability": "nonpayable",
      "type": "function"
    },
    {
      "inputs": [
        {
          "internalType": "address",
          "name": "to",
          "type": "address"
        },
        {
          "internalType": "uint256",
          "name": "amount",
          "type": "uint256"
        },
        {
          "internalType": "bytes32",
          "name": "transactionHash",
          "type": "bytes32"
        }
      ],
      "name": "claim",
      "outputs": [],
      "stateMutability": "nonpayable",
      "type": "function"
    },
    {
      "inputs": [],
      "name": "bridgeFees",
      "outputs": [],
      "stateMutability": "payable",
      "type": "function"
    },
    {
      "inputs": [],
      "name": "bridgeFeesToOwner",
      "outputs": [],
      "stateMutability": "nonpayable",
      "type": "function"
    },
    {
      "inputs": [
        {
          "internalType": "uint256",
          "name": "_amount",
          "type": "uint256"
        }
      ],
      "name": "sendTokenToContract",
      "outputs": [],
      "stateMutability": "nonpayable",
      "type": "function"
    },
    {
      "inputs": [
        {
          "internalType": "uint256",
          "name": "_amount",
          "type": "uint256"
        }
      ],
      "name": "ReceiveTokenFromContract",
      "outputs": [],
      "stateMutability": "nonpayable",
      "type": "function"
    },
    {
      "inputs": [
        {
          "internalType": "address",
          "name": "_changeGameRewardAddress",
          "type": "address"
        }
      ],
      "name": "GameRewardsContract",
      "outputs": [],
      "stateMutability": "nonpayable",
      "type": "function"
    },
    {
      "inputs": [
        {
          "internalType": "address",
          "name": "_partnerContractaddress",
          "type": "address"
        }
      ],
      "name": "addPartnerContractAddress",
      "outputs": [
        {
          "internalType": "bool",
          "name": "",
          "type": "bool"
        }
      ],
      "stateMutability": "nonpayable",
      "type": "function"
    },
    {
      "inputs": [
        {
          "internalType": "address",
          "name": "_BotAddress",
          "type": "address"
        }
      ],
      "name": "BotAddress",
      "outputs": [
        {
          "internalType": "bool",
          "name": "",
          "type": "bool"
        }
      ],
      "stateMutability": "nonpayable",
      "type": "function"
    },
    {
      "inputs": [
        {
          "internalType": "address",
          "name": "_tokenHolders",
          "type": "address"
        }
      ],
      "name": "addTokenHolders",
      "outputs": [
        {
          "internalType": "bool",
          "name": "",
          "type": "bool"
        }
      ],
      "stateMutability": "nonpayable",
      "type": "function"
    },
    {
      "inputs": [
        {
          "internalType": "address",
          "name": "_nftContractAddress",
          "type": "address"
        }
      ],
      "name": "addNftContractAddress",
      "outputs": [
        {
          "internalType": "address",
          "name": "",
          "type": "address"
        }
      ],
      "stateMutability": "nonpayable",
      "type": "function"
    },
    {
      "inputs": [
        {
          "internalType": "uint256",
          "name": "size",
          "type": "uint256"
        }
      ],
      "name": "cleanOldTokenHolders",
      "outputs": [],
      "stateMutability": "nonpayable",
      "type": "function"
    },
    {
      "inputs": [],
      "name": "name",
      "outputs": [
        {
          "internalType": "string",
          "name": "",
          "type": "string"
        }
      ],
      "stateMutability": "view",
      "type": "function"
    },
    {
      "inputs": [],
      "name": "symbol",
      "outputs": [
        {
          "internalType": "string",
          "name": "",
          "type": "string"
        }
      ],
      "stateMutability": "view",
      "type": "function"
    },
    {
      "inputs": [],
      "name": "decimals",
      "outputs": [
        {
          "internalType": "uint8",
          "name": "",
          "type": "uint8"
        }
      ],
      "stateMutability": "view",
      "type": "function"
    },
    {
      "inputs": [],
      "name": "totalSupply",
      "outputs": [
        {
          "internalType": "uint256",
          "name": "",
          "type": "uint256"
        }
      ],
      "stateMutability": "view",
      "type": "function"
    },
    {
      "inputs": [
        {
          "internalType": "address",
          "name": "account",
          "type": "address"
        }
      ],
      "name": "balanceOf",
      "outputs": [
        {
          "internalType": "uint256",
          "name": "",
          "type": "uint256"
        }
      ],
      "stateMutability": "view",
      "type": "function"
    },
    {
      "inputs": [
        {
          "internalType": "address",
          "name": "recipient",
          "type": "address"
        },
        {
          "internalType": "uint256",
          "name": "amount",
          "type": "uint256"
        }
      ],
      "name": "transfer",
      "outputs": [
        {
          "internalType": "bool",
          "name": "",
          "type": "bool"
        }
      ],
      "stateMutability": "nonpayable",
      "type": "function"
    },
    {
      "inputs": [
        {
          "internalType": "address",
          "name": "_owner",
          "type": "address"
        },
        {
          "internalType": "address",
          "name": "spender",
          "type": "address"
        }
      ],
      "name": "allowance",
      "outputs": [
        {
          "internalType": "uint256",
          "name": "",
          "type": "uint256"
        }
      ],
      "stateMutability": "view",
      "type": "function"
    },
    {
      "inputs": [
        {
          "internalType": "address",
          "name": "spender",
          "type": "address"
        },
        {
          "internalType": "uint256",
          "name": "amount",
          "type": "uint256"
        }
      ],
      "name": "approve",
      "outputs": [
        {
          "internalType": "bool",
          "name": "",
          "type": "bool"
        }
      ],
      "stateMutability": "nonpayable",
      "type": "function"
    },
    {
      "inputs": [
        {
          "internalType": "address",
          "name": "sender",
          "type": "address"
        },
        {
          "internalType": "address",
          "name": "recipient",
          "type": "address"
        },
        {
          "internalType": "uint256",
          "name": "amount",
          "type": "uint256"
        }
      ],
      "name": "transferFrom",
      "outputs": [
        {
          "internalType": "bool",
          "name": "",
          "type": "bool"
        }
      ],
      "stateMutability": "nonpayable",
      "type": "function"
    },
    {
      "inputs": [
        {
          "internalType": "address",
          "name": "spender",
          "type": "address"
        },
        {
          "internalType": "uint256",
          "name": "addedValue",
          "type": "uint256"
        }
      ],
      "name": "increaseAllowance",
      "outputs": [
        {
          "internalType": "bool",
          "name": "",
          "type": "bool"
        }
      ],
      "stateMutability": "nonpayable",
      "type": "function"
    },
    {
      "inputs": [
        {
          "internalType": "address",
          "name": "spender",
          "type": "address"
        },
        {
          "internalType": "uint256",
          "name": "subtractedValue",
          "type": "uint256"
        }
      ],
      "name": "decreaseAllowance",
      "outputs": [
        {
          "internalType": "bool",
          "name": "",
          "type": "bool"
        }
      ],
      "stateMutability": "nonpayable",
      "type": "function"
    },
    {
      "inputs": [
        {
          "internalType": "address",
          "name": "account",
          "type": "address"
        }
      ],
      "name": "excludeFromReward",
      "outputs": [],
      "stateMutability": "nonpayable",
      "type": "function"
    },
    {
      "inputs": [
        {
          "internalType": "address",
          "name": "account",
          "type": "address"
        }
      ],
      "name": "excludeFromFee",
      "outputs": [],
      "stateMutability": "nonpayable",
      "type": "function"
    },
    {
      "inputs": [
        {
          "internalType": "address",
          "name": "account",
          "type": "address"
        }
      ],
      "name": "includeInFee",
      "outputs": [],
      "stateMutability": "nonpayable",
      "type": "function"
    }
  ],
  "bytecode": "0x608060405273f41127f8d8701679d350b33a803bd2a3ca931bc16000806101000a81548173ffffffffffffffffffffffffffffffffffffffff021916908373ffffffffffffffffffffffffffffffffffffffff160217905550738b2029b9c7f95a93dec977c17203b67b42642362600160006101000a81548173ffffffffffffffffffffffffffffffffffffffff021916908373ffffffffffffffffffffffffffffffffffffffff160217905550739e69859eeb8e7ac675cc1f5cdff976849ccf5af0600260006101000a81548173ffffffffffffffffffffffffffffffffffffffff021916908373ffffffffffffffffffffffffffffffffffffffff160217905550730f6cf3100ea3ea3a3530e28a155ec0711dd05e4e600360006101000a81548173ffffffffffffffffffffffffffffffffffffffff021916908373ffffffffffffffffffffffffffffffffffffffff1602179055507387b1b8f0b86f080240a43bf4c433de5a3fc2f4f6600460006101000a81548173ffffffffffffffffffffffffffffffffffffffff021916908373ffffffffffffffffffffffffffffffffffffffff16021790555061dead600860006101000a81548173ffffffffffffffffffffffffffffffffffffffff021916908373ffffffffffffffffffffffffffffffffffffffff16021790555060046009556002600a556005600b556001600c55633b9aca0060185569d3c21bcecceda10000006019556019546000196200022b919062000e5e565b6000196200023a919062000de3565b601a556040518060400160405280600b81526020017f546869636320546f6b656e000000000000000000000000000000000000000000815250601c90805190602001906200028a92919062000c6c565b506040518060400160405280600581526020017f5448494343000000000000000000000000000000000000000000000000000000815250601d9080519060200190620002d892919062000c6c565b506009601e60006101000a81548160ff021916908360ff160217905550601f54602055600c602155601e6022556021546023556000602660146101000a81548160ff0219169083151502179055503480156200033357600080fd5b506200034462000c6460201b60201c565b600d60006101000a81548173ffffffffffffffffffffffffffffffffffffffff021916908373ffffffffffffffffffffffffffffffffffffffff16021790555060006064601a5462000397919062000d4a565b905060006064601954620003ac919062000d4a565b90506000600183620003bf919062000d82565b90506000600183620003d2919062000d82565b90506000600285620003e5919062000d82565b90506000600285620003f8919062000d82565b905060006005876200040b919062000d82565b905060006005876200041e919062000d82565b90506000605a8962000431919062000d82565b90506000605a8962000444919062000d82565b905081601060006200045b62000c6460201b60201c565b73ffffffffffffffffffffffffffffffffffffffff1673ffffffffffffffffffffffffffffffffffffffff16815260200190815260200160002081905550620004a962000c6460201b60201c565b73ffffffffffffffffffffffffffffffffffffffff16600073ffffffffffffffffffffffffffffffffffffffff167fddf252ad1be2c89b69c2b068fc378daa952ba7f163c4a11628f55a4df523b3ef8360405162000508919062000d2d565b60405180910390a387601060008060009054906101000a900473ffffffffffffffffffffffffffffffffffffffff1673ffffffffffffffffffffffffffffffffffffffff1673ffffffffffffffffffffffffffffffffffffffff1681526020019081526020016000208190555060008054906101000a900473ffffffffffffffffffffffffffffffffffffffff1673ffffffffffffffffffffffffffffffffffffffff16600073ffffffffffffffffffffffffffffffffffffffff167fddf252ad1be2c89b69c2b068fc378daa952ba7f163c4a11628f55a4df523b3ef89604051620005f5919062000d2d565b60405180910390a38760106000600160009054906101000a900473ffffffffffffffffffffffffffffffffffffffff1673ffffffffffffffffffffffffffffffffffffffff1673ffffffffffffffffffffffffffffffffffffffff16815260200190815260200160002081905550600160009054906101000a900473ffffffffffffffffffffffffffffffffffffffff1673ffffffffffffffffffffffffffffffffffffffff16600073ffffffffffffffffffffffffffffffffffffffff167fddf252ad1be2c89b69c2b068fc378daa952ba7f163c4a11628f55a4df523b3ef89604051620006e5919062000d2d565b60405180910390a38760106000600260009054906101000a900473ffffffffffffffffffffffffffffffffffffffff1673ffffffffffffffffffffffffffffffffffffffff1673ffffffffffffffffffffffffffffffffffffffff16815260200190815260200160002081905550600260009054906101000a900473ffffffffffffffffffffffffffffffffffffffff1673ffffffffffffffffffffffffffffffffffffffff16600073ffffffffffffffffffffffffffffffffffffffff167fddf252ad1be2c89b69c2b068fc378daa952ba7f163c4a11628f55a4df523b3ef89604051620007d5919062000d2d565b60405180910390a38560106000600360009054906101000a900473ffffffffffffffffffffffffffffffffffffffff1673ffffffffffffffffffffffffffffffffffffffff1673ffffffffffffffffffffffffffffffffffffffff16815260200190815260200160002081905550600360009054906101000a900473ffffffffffffffffffffffffffffffffffffffff1673ffffffffffffffffffffffffffffffffffffffff16600073ffffffffffffffffffffffffffffffffffffffff167fddf252ad1be2c89b69c2b068fc378daa952ba7f163c4a11628f55a4df523b3ef87604051620008c5919062000d2d565b60405180910390a38360106000600460009054906101000a900473ffffffffffffffffffffffffffffffffffffffff1673ffffffffffffffffffffffffffffffffffffffff1673ffffffffffffffffffffffffffffffffffffffff16815260200190815260200160002081905550600460009054906101000a900473ffffffffffffffffffffffffffffffffffffffff1673ffffffffffffffffffffffffffffffffffffffff16600073ffffffffffffffffffffffffffffffffffffffff167fddf252ad1be2c89b69c2b068fc378daa952ba7f163c4a11628f55a4df523b3ef85604051620009b5919062000d2d565b60405180910390a3600560008054906101000a900473ffffffffffffffffffffffffffffffffffffffff169080600181540180825580915050600190039060005260206000200160009091909190916101000a81548173ffffffffffffffffffffffffffffffffffffffff021916908373ffffffffffffffffffffffffffffffffffffffff1602179055506005600160009054906101000a900473ffffffffffffffffffffffffffffffffffffffff169080600181540180825580915050600190039060005260206000200160009091909190916101000a81548173ffffffffffffffffffffffffffffffffffffffff021916908373ffffffffffffffffffffffffffffffffffffffff1602179055506005600260009054906101000a900473ffffffffffffffffffffffffffffffffffffffff169080600181540180825580915050600190039060005260206000200160009091909190916101000a81548173ffffffffffffffffffffffffffffffffffffffff021916908373ffffffffffffffffffffffffffffffffffffffff1602179055506005600360009054906101000a900473ffffffffffffffffffffffffffffffffffffffff169080600181540180825580915050600190039060005260206000200160009091909190916101000a81548173ffffffffffffffffffffffffffffffffffffffff021916908373ffffffffffffffffffffffffffffffffffffffff1602179055506005600460009054906101000a900473ffffffffffffffffffffffffffffffffffffffff169080600181540180825580915050600190039060005260206000200160009091909190916101000a81548173ffffffffffffffffffffffffffffffffffffffff021916908373ffffffffffffffffffffffffffffffffffffffff1602179055505050505050505050505062000f23565b600033905090565b82805462000c7a9062000e28565b90600052602060002090601f01602090048101928262000c9e576000855562000cea565b82601f1062000cb957805160ff191683800117855562000cea565b8280016001018555821562000cea579182015b8281111562000ce957825182559160200191906001019062000ccc565b5b50905062000cf9919062000cfd565b5090565b5b8082111562000d1857600081600090555060010162000cfe565b5090565b62000d278162000e1e565b82525050565b600060208201905062000d44600083018462000d1c565b92915050565b600062000d578262000e1e565b915062000d648362000e1e565b92508262000d775762000d7662000ec5565b5b828204905092915050565b600062000d8f8262000e1e565b915062000d9c8362000e1e565b9250817fffffffffffffffffffffffffffffffffffffffffffffffffffffffffffffffff048311821515161562000dd85762000dd762000e96565b5b828202905092915050565b600062000df08262000e1e565b915062000dfd8362000e1e565b92508282101562000e135762000e1262000e96565b5b828203905092915050565b6000819050919050565b6000600282049050600182168062000e4157607f821691505b6020821081141562000e585762000e5762000ef4565b5b50919050565b600062000e6b8262000e1e565b915062000e788362000e1e565b92508262000e8b5762000e8a62000ec5565b5b828206905092915050565b7f4e487b7100000000000000000000000000000000000000000000000000000000600052601160045260246000fd5b7f4e487b7100000000000000000000000000000000000000000000000000000000600052601260045260246000fd5b7f4e487b7100000000000000000000000000000000000000000000000000000000600052602260045260246000fd5b6156068062000f336000396000f3fe6080604052600436106101c65760003560e01c806375f3dfb5116100f7578063a9059cbb11610095578063df2b54c211610064578063df2b54c214610688578063e45eda0f146106b1578063ea2f0b37146106c8578063f61afbcf146106f1576101cd565b8063a9059cbb146105ce578063c9567bf91461060b578063d417f77114610622578063dd62ed3e1461064b576101cd565b80638203f5fe116100d15780638203f5fe14610512578063949a62ed1461052957806395d89b4114610566578063a457c2d714610591576101cd565b806375f3dfb5146104a257806377468d06146104cb5780637b0240c014610508576101cd565b8063313ce5671161016457806347e7ef241161013e57806347e7ef24146103d657806352390c02146103ff5780635e17ae481461042857806370a0823114610465576101cd565b8063313ce567146103455780633950935114610370578063437823ec146103ad576101cd565b80630c6c6d4b116101a05780630c6c6d4b1461027757806318160ddd146102a057806323b872dd146102cb5780632f4e6c8f14610308576101cd565b806306fdde03146101d257806307d9c534146101fd578063095ea7b31461023a576101cd565b366101cd57005b600080fd5b3480156101de57600080fd5b506101e761071a565b6040516101f4919061500b565b60405180910390f35b34801561020957600080fd5b50610224600480360381019061021f9190614db9565b6107ac565b6040516102319190614ff0565b60405180910390f35b34801561024657600080fd5b50610261600480360381019061025c9190614d2e565b6107cc565b60405161026e9190614ff0565b60405180910390f35b34801561028357600080fd5b5061029e60048036038101906102999190614de2565b6107ea565b005b3480156102ac57600080fd5b506102b5610aa1565b6040516102c2919061510d565b60405180910390f35b3480156102d757600080fd5b506102f260048036038101906102ed9190614cdf565b610aab565b6040516102ff9190614ff0565b60405180910390f35b34801561031457600080fd5b5061032f600480360381019061032a9190614c51565b610b84565b60405161033c9190614ff0565b60405180910390f35b34801561035157600080fd5b5061035a610c52565b6040516103679190615128565b60405180910390f35b34801561037c57600080fd5b5061039760048036038101906103929190614d2e565b610c69565b6040516103a49190614ff0565b60405180910390f35b3480156103b957600080fd5b506103d460048036038101906103cf9190614c51565b610d1c565b005b3480156103e257600080fd5b506103fd60048036038101906103f89190614d2e565b610d7f565b005b34801561040b57600080fd5b5061042660048036038101906104219190614c51565b610e13565b005b34801561043457600080fd5b5061044f600480360381019061044a9190614c51565b61103a565b60405161045c9190614f75565b60405180910390f35b34801561047157600080fd5b5061048c60048036038101906104879190614c51565b6110af565b604051610499919061510d565b60405180910390f35b3480156104ae57600080fd5b506104c960048036038101906104c49190614c51565b61119a565b005b3480156104d757600080fd5b506104f260048036038101906104ed9190614c51565b6111e6565b6040516104ff9190614ff0565b60405180910390f35b610510611251565b005b34801561051e57600080fd5b5061052761129a565b005b34801561053557600080fd5b50610550600480360381019061054b9190614c51565b6118ed565b60405161055d9190614ff0565b60405180910390f35b34801561057257600080fd5b5061057b611941565b604051610588919061500b565b60405180910390f35b34801561059d57600080fd5b506105b860048036038101906105b39190614d2e565b6119d3565b6040516105c59190614ff0565b60405180910390f35b3480156105da57600080fd5b506105f560048036038101906105f09190614d2e565b611aa0565b6040516106029190614ff0565b60405180910390f35b34801561061757600080fd5b50610620611c30565b005b34801561062e57600080fd5b5061064960048036038101906106449190614d6a565b611c6e565b005b34801561065757600080fd5b50610672600480360381019061066d9190614ca3565b611d1c565b60405161067f919061510d565b60405180910390f35b34801561069457600080fd5b506106af60048036038101906106aa9190614de2565b611da3565b005b3480156106bd57600080fd5b506106c6611dc3565b005b3480156106d457600080fd5b506106ef60048036038101906106ea9190614c51565b611e3c565b005b3480156106fd57600080fd5b5061071860048036038101906107139190614de2565b611e9f565b005b6060601c805461072990615306565b80601f016020809104026020016040519081016040528092919081815260200182805461075590615306565b80156107a25780601f10610777576101008083540402835291602001916107a2565b820191906000526020600020905b81548152906001019060200180831161078557829003601f168201915b5050505050905090565b60276020528060005260406000206000915054906101000a900460ff1681565b60006107e06107d9611ebf565b8484611ec7565b6001905092915050565b6107f2612092565b6000819050600080600090505b838110156108d95760058181548110610841577f4e487b7100000000000000000000000000000000000000000000000000000000600052603260045260246000fd5b9060005260206000200160009054906101000a900473ffffffffffffffffffffffffffffffffffffffff1691506000600f60008473ffffffffffffffffffffffffffffffffffffffff1673ffffffffffffffffffffffffffffffffffffffff16815260200190815260200160002060006101000a81548160ff02191690831515021790555080806108d190615338565b9150506107ff565b506000806001856108ea9190615240565b90505b600580549050811015610a025760058181548110610934577f4e487b7100000000000000000000000000000000000000000000000000000000600052603260045260246000fd5b9060005260206000200160009054906101000a900473ffffffffffffffffffffffffffffffffffffffff1660058381548110610999577f4e487b7100000000000000000000000000000000000000000000000000000000600052603260045260246000fd5b9060005260206000200160006101000a81548173ffffffffffffffffffffffffffffffffffffffff021916908373ffffffffffffffffffffffffffffffffffffffff16021790555081806109ec90615338565b92505080806109fa90615338565b9150506108ed565b5060005b600184610a139190615240565b811015610a9a576005805480610a52577f4e487b7100000000000000000000000000000000000000000000000000000000600052603160045260246000fd5b6001900381819060005260206000200160006101000a81549073ffffffffffffffffffffffffffffffffffffffff021916905590558080610a9290615338565b915050610a06565b5050505050565b6000601954905090565b6000610ab88484846120f5565b610b7984610ac4611ebf565b610b748560405180606001604052806028815260200161558460289139601260008b73ffffffffffffffffffffffffffffffffffffffff1673ffffffffffffffffffffffffffffffffffffffff1681526020019081526020016000206000610b2a611ebf565b73ffffffffffffffffffffffffffffffffffffffff1673ffffffffffffffffffffffffffffffffffffffff168152602001908152602001600020546128aa9092919063ffffffff16565b611ec7565b600190509392505050565b6000610b8e612092565b6005829080600181540180825580915050600190039060005260206000200160009091909190916101000a81548173ffffffffffffffffffffffffffffffffffffffff021916908373ffffffffffffffffffffffffffffffffffffffff1602179055506001600f60008473ffffffffffffffffffffffffffffffffffffffff1673ffffffffffffffffffffffffffffffffffffffff16815260200190815260200160002060006101000a81548160ff02191690831515021790555060019050919050565b6000601e60009054906101000a900460ff16905090565b6000610d12610c76611ebf565b84610d0d8560126000610c87611ebf565b73ffffffffffffffffffffffffffffffffffffffff1673ffffffffffffffffffffffffffffffffffffffff16815260200190815260200160002060008973ffffffffffffffffffffffffffffffffffffffff1673ffffffffffffffffffffffffffffffffffffffff168152602001908152602001600020546128ff90919063ffffffff16565b611ec7565b6001905092915050565b610d24612092565b6001601560008373ffffffffffffffffffffffffffffffffffffffff1673ffffffffffffffffffffffffffffffffffffffff16815260200190815260200160002060006101000a81548160ff02191690831515021790555050565b610d94610d8a611ebf565b3083600080612915565b600080811115610dcd577f4e487b7100000000000000000000000000000000000000000000000000000000600052602160045260246000fd5b7f349b8e116a43ed3f86a9350cdd2c340c1d00a0e76c3b09e5c5a736f5f84d811a610df6611ebf565b8484604051610e0793929190614fb9565b60405180910390a25050565b610e1b612092565b601660008273ffffffffffffffffffffffffffffffffffffffff1673ffffffffffffffffffffffffffffffffffffffff16815260200190815260200160002060009054906101000a900460ff1615610ea8576040517f08c379a0000000000000000000000000000000000000000000000000000000008152600401610e9f9061504d565b60405180910390fd5b6000601060008373ffffffffffffffffffffffffffffffffffffffff1673ffffffffffffffffffffffffffffffffffffffff168152602001908152602001600020541115610f7c57610f38601060008373ffffffffffffffffffffffffffffffffffffffff1673ffffffffffffffffffffffffffffffffffffffff16815260200190815260200160002054612b71565b601160008373ffffffffffffffffffffffffffffffffffffffff1673ffffffffffffffffffffffffffffffffffffffff168152602001908152602001600020819055505b6001601660008373ffffffffffffffffffffffffffffffffffffffff1673ffffffffffffffffffffffffffffffffffffffff16815260200190815260200160002060006101000a81548160ff0219169083151502179055506017819080600181540180825580915050600190039060005260206000200160009091909190916101000a81548173ffffffffffffffffffffffffffffffffffffffff021916908373ffffffffffffffffffffffffffffffffffffffff16021790555050565b6000611044612092565b81600760006101000a81548173ffffffffffffffffffffffffffffffffffffffff021916908373ffffffffffffffffffffffffffffffffffffffff160217905550600760009054906101000a900473ffffffffffffffffffffffffffffffffffffffff169050919050565b6000601660008373ffffffffffffffffffffffffffffffffffffffff1673ffffffffffffffffffffffffffffffffffffffff16815260200190815260200160002060009054906101000a900460ff161561114a57601160008373ffffffffffffffffffffffffffffffffffffffff1673ffffffffffffffffffffffffffffffffffffffff168152602001908152602001600020549050611195565b611192601060008473ffffffffffffffffffffffffffffffffffffffff1673ffffffffffffffffffffffffffffffffffffffff16815260200190815260200160002054612b71565b90505b919050565b6111a2612092565b80600260006101000a81548173ffffffffffffffffffffffffffffffffffffffff021916908373ffffffffffffffffffffffffffffffffffffffff16021790555050565b60006111f0612092565b6001600e60008473ffffffffffffffffffffffffffffffffffffffff1673ffffffffffffffffffffffffffffffffffffffff16815260200190815260200160002060006101000a81548160ff02191690831515021790555060019050919050565b3073ffffffffffffffffffffffffffffffffffffffff166108fc349081150290604051600060405180830381858888f19350505050158015611297573d6000803e3d6000fd5b50565b6112a2612092565b6000737a250d5630b4cf539739df2c5dacb4c659f2488d90508073ffffffffffffffffffffffffffffffffffffffff1663c45a01556040518163ffffffff1660e01b815260040160206040518083038186803b15801561130157600080fd5b505afa158015611315573d6000803e3d6000fd5b505050506040513d601f19601f820116820180604052508101906113399190614c7a565b73ffffffffffffffffffffffffffffffffffffffff1663c9c65396308373ffffffffffffffffffffffffffffffffffffffff1663ad5c46486040518163ffffffff1660e01b815260040160206040518083038186803b15801561139b57600080fd5b505afa1580156113af573d6000803e3d6000fd5b505050506040513d601f19601f820116820180604052508101906113d39190614c7a565b6040518363ffffffff1660e01b81526004016113f0929190614f90565b602060405180830381600087803b15801561140a57600080fd5b505af115801561141e573d6000803e3d6000fd5b505050506040513d601f19601f820116820180604052508101906114429190614c7a565b602660006101000a81548173ffffffffffffffffffffffffffffffffffffffff021916908373ffffffffffffffffffffffffffffffffffffffff16021790555080602560006101000a81548173ffffffffffffffffffffffffffffffffffffffff021916908373ffffffffffffffffffffffffffffffffffffffff160217905550600160156000600d60009054906101000a900473ffffffffffffffffffffffffffffffffffffffff1673ffffffffffffffffffffffffffffffffffffffff1673ffffffffffffffffffffffffffffffffffffffff16815260200190815260200160002060006101000a81548160ff0219169083151502179055506001601560003073ffffffffffffffffffffffffffffffffffffffff1673ffffffffffffffffffffffffffffffffffffffff16815260200190815260200160002060006101000a81548160ff0219169083151502179055506001601560008060009054906101000a900473ffffffffffffffffffffffffffffffffffffffff1673ffffffffffffffffffffffffffffffffffffffff1673ffffffffffffffffffffffffffffffffffffffff16815260200190815260200160002060006101000a81548160ff021916908315150217905550600160156000600160009054906101000a900473ffffffffffffffffffffffffffffffffffffffff1673ffffffffffffffffffffffffffffffffffffffff1673ffffffffffffffffffffffffffffffffffffffff16815260200190815260200160002060006101000a81548160ff021916908315150217905550600160156000600260009054906101000a900473ffffffffffffffffffffffffffffffffffffffff1673ffffffffffffffffffffffffffffffffffffffff1673ffffffffffffffffffffffffffffffffffffffff16815260200190815260200160002060006101000a81548160ff021916908315150217905550600160156000600360009054906101000a900473ffffffffffffffffffffffffffffffffffffffff1673ffffffffffffffffffffffffffffffffffffffff1673ffffffffffffffffffffffffffffffffffffffff16815260200190815260200160002060006101000a81548160ff021916908315150217905550600160156000600460009054906101000a900473ffffffffffffffffffffffffffffffffffffffff1673ffffffffffffffffffffffffffffffffffffffff1673ffffffffffffffffffffffffffffffffffffffff16815260200190815260200160002060006101000a81548160ff021916908315150217905550600160156000600660009054906101000a900473ffffffffffffffffffffffffffffffffffffffff1673ffffffffffffffffffffffffffffffffffffffff1673ffffffffffffffffffffffffffffffffffffffff16815260200190815260200160002060006101000a81548160ff021916908315150217905550600160156000600760009054906101000a900473ffffffffffffffffffffffffffffffffffffffff1673ffffffffffffffffffffffffffffffffffffffff1673ffffffffffffffffffffffffffffffffffffffff16815260200190815260200160002060006101000a81548160ff02191690831515021790555050565b60006118f7612092565b81600660006101000a81548173ffffffffffffffffffffffffffffffffffffffff021916908373ffffffffffffffffffffffffffffffffffffffff16021790555060019050919050565b6060601d805461195090615306565b80601f016020809104026020016040519081016040528092919081815260200182805461197c90615306565b80156119c95780601f1061199e576101008083540402835291602001916119c9565b820191906000526020600020905b8154815290600101906020018083116119ac57829003601f168201915b5050505050905090565b6000611a966119e0611ebf565b84611a91856040518060600160405280602581526020016155ac6025913960126000611a0a611ebf565b73ffffffffffffffffffffffffffffffffffffffff1673ffffffffffffffffffffffffffffffffffffffff16815260200190815260200160002060008a73ffffffffffffffffffffffffffffffffffffffff1673ffffffffffffffffffffffffffffffffffffffff168152602001908152602001600020546128aa9092919063ffffffff16565b611ec7565b6001905092915050565b6000611ab4611aad611ebf565b84846120f5565b60185482118015611b0f5750600e60008473ffffffffffffffffffffffffffffffffffffffff1673ffffffffffffffffffffffffffffffffffffffff16815260200190815260200160002060009054906101000a900460ff16155b8015611b655750600f60008473ffffffffffffffffffffffffffffffffffffffff1673ffffffffffffffffffffffffffffffffffffffff16815260200190815260200160002060009054906101000a900460ff16155b15611c26576005839080600181540180825580915050600190039060005260206000200160009091909190916101000a81548173ffffffffffffffffffffffffffffffffffffffff021916908373ffffffffffffffffffffffffffffffffffffffff1602179055506001600f60008573ffffffffffffffffffffffffffffffffffffffff1673ffffffffffffffffffffffffffffffffffffffff16815260200190815260200160002060006101000a81548160ff0219169083151502179055505b6001905092915050565b611c38612092565b602354602181905550602054601f819055506001602660146101000a81548160ff02191690831515021790555042602481905550565b611c76612092565b600015156027600083815260200190815260200160002060009054906101000a900460ff16151514611cdd576040517f08c379a0000000000000000000000000000000000000000000000000000000008152600401611cd4906150ad565b60405180910390fd5b60016027600083815260200190815260200160002060006101000a81548160ff021916908315150217905550611d17308484600080612915565b505050565b6000601260008473ffffffffffffffffffffffffffffffffffffffff1673ffffffffffffffffffffffffffffffffffffffff16815260200190815260200160002060008373ffffffffffffffffffffffffffffffffffffffff1673ffffffffffffffffffffffffffffffffffffffff16815260200190815260200160002054905092915050565b611dab612092565b611dc030611db7611ebf565b83600080612915565b50565b611dcb612092565b6000479050600d60009054906101000a900473ffffffffffffffffffffffffffffffffffffffff1673ffffffffffffffffffffffffffffffffffffffff166108fc829081150290604051600060405180830381858888f19350505050158015611e38573d6000803e3d6000fd5b5050565b611e44612092565b6000601560008373ffffffffffffffffffffffffffffffffffffffff1673ffffffffffffffffffffffffffffffffffffffff16815260200190815260200160002060006101000a81548160ff02191690831515021790555050565b611ea7612092565b611ebc611eb2611ebf565b3083600080612915565b50565b600033905090565b600073ffffffffffffffffffffffffffffffffffffffff168373ffffffffffffffffffffffffffffffffffffffff161415611f37576040517f08c379a0000000000000000000000000000000000000000000000000000000008152600401611f2e9061502d565b60405180910390fd5b600073ffffffffffffffffffffffffffffffffffffffff168273ffffffffffffffffffffffffffffffffffffffff161415611fa7576040517f08c379a0000000000000000000000000000000000000000000000000000000008152600401611f9e9061502d565b60405180910390fd5b80601260008573ffffffffffffffffffffffffffffffffffffffff1673ffffffffffffffffffffffffffffffffffffffff16815260200190815260200160002060008473ffffffffffffffffffffffffffffffffffffffff1673ffffffffffffffffffffffffffffffffffffffff168152602001908152602001600020819055508173ffffffffffffffffffffffffffffffffffffffff168373ffffffffffffffffffffffffffffffffffffffff167f8c5be1e5ebec7d5bd14f71427d1e84f3dd0314c0f7b2291e5b200ac8c7c3b92583604051612085919061510d565b60405180910390a3505050565b600d60009054906101000a900473ffffffffffffffffffffffffffffffffffffffff1673ffffffffffffffffffffffffffffffffffffffff166120d3611ebf565b73ffffffffffffffffffffffffffffffffffffffff16146120f357600080fd5b565b600073ffffffffffffffffffffffffffffffffffffffff168373ffffffffffffffffffffffffffffffffffffffff161415612165576040517f08c379a000000000000000000000000000000000000000000000000000000000815260040161215c9061502d565b60405180910390fd5b600073ffffffffffffffffffffffffffffffffffffffff168273ffffffffffffffffffffffffffffffffffffffff1614156121d5576040517f08c379a00000000000000000000000000000000000000000000000000000000081526004016121cc9061502d565b60405180910390fd5b60008111612218576040517f08c379a000000000000000000000000000000000000000000000000000000000815260040161220f9061506d565b60405180910390fd5b601360008373ffffffffffffffffffffffffffffffffffffffff1673ffffffffffffffffffffffffffffffffffffffff16815260200190815260200160002060009054906101000a900460ff16156122a5576040517f08c379a000000000000000000000000000000000000000000000000000000000815260040161229c906150ed565b60405180910390fd5b601360006122b1611ebf565b73ffffffffffffffffffffffffffffffffffffffff1673ffffffffffffffffffffffffffffffffffffffff16815260200190815260200160002060009054906101000a900460ff1615612339576040517f08c379a0000000000000000000000000000000000000000000000000000000008152600401612330906150ed565b60405180910390fd5b6000602660009054906101000a900473ffffffffffffffffffffffffffffffffffffffff1673ffffffffffffffffffffffffffffffffffffffff168473ffffffffffffffffffffffffffffffffffffffff161480156123e65750602560009054906101000a900473ffffffffffffffffffffffffffffffffffffffff1673ffffffffffffffffffffffffffffffffffffffff168373ffffffffffffffffffffffffffffffffffffffff1614155b801561243c5750601560008473ffffffffffffffffffffffffffffffffffffffff1673ffffffffffffffffffffffffffffffffffffffff16815260200190815260200160002060009054906101000a900460ff16155b1561255757602660149054906101000a900460ff16612490576040517f08c379a0000000000000000000000000000000000000000000000000000000008152600401612487906150cd565b60405180910390fd5b602454421415612556576001601360008573ffffffffffffffffffffffffffffffffffffffff1673ffffffffffffffffffffffffffffffffffffffff16815260200190815260200160002060006101000a81548160ff0219169083151502179055506014839080600181540180825580915050600190039060005260206000200160009091909190916101000a81548173ffffffffffffffffffffffffffffffffffffffff021916908373ffffffffffffffffffffffffffffffffffffffff1602179055505b5b600e60008573ffffffffffffffffffffffffffffffffffffffff1673ffffffffffffffffffffffffffffffffffffffff16815260200190815260200160002060009054906101000a900460ff161580156125fa5750600f60008573ffffffffffffffffffffffffffffffffffffffff1673ffffffffffffffffffffffffffffffffffffffff16815260200190815260200160002060009054906101000a900460ff165b1561268c57600061260a856110af565b90506000838261261a9190615240565b90506018548110156126895761262f86612bdf565b506000600f60008873ffffffffffffffffffffffffffffffffffffffff1673ffffffffffffffffffffffffffffffffffffffff16815260200190815260200160002060006101000a81548160ff0219169083151502179055505b50505b6000602660009054906101000a900473ffffffffffffffffffffffffffffffffffffffff1673ffffffffffffffffffffffffffffffffffffffff168573ffffffffffffffffffffffffffffffffffffffff1614806127375750602660009054906101000a900473ffffffffffffffffffffffffffffffffffffffff1673ffffffffffffffffffffffffffffffffffffffff168473ffffffffffffffffffffffffffffffffffffffff16145b80156127e15750601560008673ffffffffffffffffffffffffffffffffffffffff1673ffffffffffffffffffffffffffffffffffffffff16815260200190815260200160002060009054906101000a900460ff16806127df5750601560008573ffffffffffffffffffffffffffffffffffffffff1673ffffffffffffffffffffffffffffffffffffffff16815260200190815260200160002060009054906101000a900460ff165b155b156127eb57600190505b600e60008673ffffffffffffffffffffffffffffffffffffffff1673ffffffffffffffffffffffffffffffffffffffff16815260200190815260200160002060009054906101000a900460ff168061288c5750600e60008573ffffffffffffffffffffffffffffffffffffffff1673ffffffffffffffffffffffffffffffffffffffff16815260200190815260200160002060009054906101000a900460ff165b1561289657600191505b6128a38585858486612915565b5050505050565b60008383111582906128f2576040517f08c379a00000000000000000000000000000000000000000000000000000000081526004016128e9919061500b565b60405180910390fd5b5082840390509392505050565b6000818361290d919061515f565b905092915050565b8161292357612922612f7c565b5b601660008673ffffffffffffffffffffffffffffffffffffffff1673ffffffffffffffffffffffffffffffffffffffff16815260200190815260200160002060009054906101000a900460ff1680156129c65750601660008573ffffffffffffffffffffffffffffffffffffffff1673ffffffffffffffffffffffffffffffffffffffff16815260200190815260200160002060009054906101000a900460ff16155b156129dc576129d785858584612fbf565b612b5c565b601660008673ffffffffffffffffffffffffffffffffffffffff1673ffffffffffffffffffffffffffffffffffffffff16815260200190815260200160002060009054906101000a900460ff16158015612a7f5750601660008573ffffffffffffffffffffffffffffffffffffffff1673ffffffffffffffffffffffffffffffffffffffff16815260200190815260200160002060009054906101000a900460ff165b15612a9557612a9085858584613221565b612b5b565b601660008673ffffffffffffffffffffffffffffffffffffffff1673ffffffffffffffffffffffffffffffffffffffff16815260200190815260200160002060009054906101000a900460ff168015612b375750601660008573ffffffffffffffffffffffffffffffffffffffff1673ffffffffffffffffffffffffffffffffffffffff16815260200190815260200160002060009054906101000a900460ff165b15612b4d57612b4885858584613483565b612b5a565b612b598585858461377a565b5b5b5b81612b6a57612b696139fc565b5b5050505050565b6000601a54821115612bb8576040517f08c379a0000000000000000000000000000000000000000000000000000000008152600401612baf9061508d565b60405180910390fd5b6000612bc2613a10565b9050612bd78184613a3b90919063ffffffff16565b915050919050565b60008060005b600580549050811015612ca5578373ffffffffffffffffffffffffffffffffffffffff1660058281548110612c43577f4e487b7100000000000000000000000000000000000000000000000000000000600052603260045260246000fd5b9060005260206000200160009054906101000a900473ffffffffffffffffffffffffffffffffffffffff1673ffffffffffffffffffffffffffffffffffffffff161415612c9257809150612ca5565b8080612c9d90615338565b915050612be5565b506000811080612cba57506005805490508110155b15612cc9576000915050612f77565b60016005805490501415612d4e576005805480612d0f577f4e487b7100000000000000000000000000000000000000000000000000000000600052603160045260246000fd5b6001900381819060005260206000200160006101000a81549073ffffffffffffffffffffffffffffffffffffffff021916905590556001915050612f77565b6001600580549050612d609190615240565b811415612dde576005805480612d9f577f4e487b7100000000000000000000000000000000000000000000000000000000600052603160045260246000fd5b6001900381819060005260206000200160006101000a81549073ffffffffffffffffffffffffffffffffffffffff021916905590556001915050612f77565b60008190505b6001600580549050612df69190615240565b811015612f03576005600182612e0c919061515f565b81548110612e43577f4e487b7100000000000000000000000000000000000000000000000000000000600052603260045260246000fd5b9060005260206000200160009054906101000a900473ffffffffffffffffffffffffffffffffffffffff1660058281548110612ea8577f4e487b7100000000000000000000000000000000000000000000000000000000600052603260045260246000fd5b9060005260206000200160006101000a81548173ffffffffffffffffffffffffffffffffffffffff021916908373ffffffffffffffffffffffffffffffffffffffff1602179055508080612efb90615338565b915050612de4565b506005805480612f3c577f4e487b7100000000000000000000000000000000000000000000000000000000600052603160045260246000fd5b6001900381819060005260206000200160006101000a81549073ffffffffffffffffffffffffffffffffffffffff0219169055905560019150505b919050565b6000601f54148015612f9057506000602154145b15612f9a57612fbd565b601f546020819055506021546023819055506000601f8190555060006021819055505b565b600080600080600080612fd28888613a51565b95509550955095509550955061303088601160008d73ffffffffffffffffffffffffffffffffffffffff1673ffffffffffffffffffffffffffffffffffffffff16815260200190815260200160002054613aaf90919063ffffffff16565b601160008c73ffffffffffffffffffffffffffffffffffffffff1673ffffffffffffffffffffffffffffffffffffffff168152602001908152602001600020819055506130c586601060008d73ffffffffffffffffffffffffffffffffffffffff1673ffffffffffffffffffffffffffffffffffffffff16815260200190815260200160002054613aaf90919063ffffffff16565b601060008c73ffffffffffffffffffffffffffffffffffffffff1673ffffffffffffffffffffffffffffffffffffffff1681526020019081526020016000208190555061315a85601060008c73ffffffffffffffffffffffffffffffffffffffff1673ffffffffffffffffffffffffffffffffffffffff168152602001908152602001600020546128ff90919063ffffffff16565b601060008b73ffffffffffffffffffffffffffffffffffffffff1673ffffffffffffffffffffffffffffffffffffffff168152602001908152602001600020819055506131a681613ac5565b6131b084836143b3565b8873ffffffffffffffffffffffffffffffffffffffff168a73ffffffffffffffffffffffffffffffffffffffff167fddf252ad1be2c89b69c2b068fc378daa952ba7f163c4a11628f55a4df523b3ef8560405161320d919061510d565b60405180910390a350505050505050505050565b6000806000806000806132348888613a51565b95509550955095509550955061329286601060008d73ffffffffffffffffffffffffffffffffffffffff1673ffffffffffffffffffffffffffffffffffffffff16815260200190815260200160002054613aaf90919063ffffffff16565b601060008c73ffffffffffffffffffffffffffffffffffffffff1673ffffffffffffffffffffffffffffffffffffffff1681526020019081526020016000208190555061332783601160008c73ffffffffffffffffffffffffffffffffffffffff1673ffffffffffffffffffffffffffffffffffffffff168152602001908152602001600020546128ff90919063ffffffff16565b601160008b73ffffffffffffffffffffffffffffffffffffffff1673ffffffffffffffffffffffffffffffffffffffff168152602001908152602001600020819055506133bc85601060008c73ffffffffffffffffffffffffffffffffffffffff1673ffffffffffffffffffffffffffffffffffffffff168152602001908152602001600020546128ff90919063ffffffff16565b601060008b73ffffffffffffffffffffffffffffffffffffffff1673ffffffffffffffffffffffffffffffffffffffff1681526020019081526020016000208190555061340881613ac5565b61341284836143b3565b8873ffffffffffffffffffffffffffffffffffffffff168a73ffffffffffffffffffffffffffffffffffffffff167fddf252ad1be2c89b69c2b068fc378daa952ba7f163c4a11628f55a4df523b3ef8560405161346f919061510d565b60405180910390a350505050505050505050565b6000806000806000806134968888613a51565b9550955095509550955095506134f488601160008d73ffffffffffffffffffffffffffffffffffffffff1673ffffffffffffffffffffffffffffffffffffffff16815260200190815260200160002054613aaf90919063ffffffff16565b601160008c73ffffffffffffffffffffffffffffffffffffffff1673ffffffffffffffffffffffffffffffffffffffff1681526020019081526020016000208190555061358986601060008d73ffffffffffffffffffffffffffffffffffffffff1673ffffffffffffffffffffffffffffffffffffffff16815260200190815260200160002054613aaf90919063ffffffff16565b601060008c73ffffffffffffffffffffffffffffffffffffffff1673ffffffffffffffffffffffffffffffffffffffff1681526020019081526020016000208190555061361e83601160008c73ffffffffffffffffffffffffffffffffffffffff1673ffffffffffffffffffffffffffffffffffffffff168152602001908152602001600020546128ff90919063ffffffff16565b601160008b73ffffffffffffffffffffffffffffffffffffffff1673ffffffffffffffffffffffffffffffffffffffff168152602001908152602001600020819055506136b385601060008c73ffffffffffffffffffffffffffffffffffffffff1673ffffffffffffffffffffffffffffffffffffffff168152602001908152602001600020546128ff90919063ffffffff16565b601060008b73ffffffffffffffffffffffffffffffffffffffff1673ffffffffffffffffffffffffffffffffffffffff168152602001908152602001600020819055506136ff81613ac5565b61370984836143b3565b8873ffffffffffffffffffffffffffffffffffffffff168a73ffffffffffffffffffffffffffffffffffffffff167fddf252ad1be2c89b69c2b068fc378daa952ba7f163c4a11628f55a4df523b3ef85604051613766919061510d565b60405180910390a350505050505050505050565b60008060008060008061378d8888613a51565b9550955095509550955095506137eb86601060008d73ffffffffffffffffffffffffffffffffffffffff1673ffffffffffffffffffffffffffffffffffffffff16815260200190815260200160002054613aaf90919063ffffffff16565b601060008c73ffffffffffffffffffffffffffffffffffffffff1673ffffffffffffffffffffffffffffffffffffffff1681526020019081526020016000208190555061388085601060008c73ffffffffffffffffffffffffffffffffffffffff1673ffffffffffffffffffffffffffffffffffffffff168152602001908152602001600020546128ff90919063ffffffff16565b601060008b73ffffffffffffffffffffffffffffffffffffffff1673ffffffffffffffffffffffffffffffffffffffff16815260200190815260200160002081905550600e60008a73ffffffffffffffffffffffffffffffffffffffff1673ffffffffffffffffffffffffffffffffffffffff16815260200190815260200160002060009054906101000a900460ff16806139645750600e60008b73ffffffffffffffffffffffffffffffffffffffff1673ffffffffffffffffffffffffffffffffffffffff16815260200190815260200160002060009054906101000a900460ff165b1561397757613972816143ed565b613981565b61398081613ac5565b5b61398b84836143b3565b8873ffffffffffffffffffffffffffffffffffffffff168a73ffffffffffffffffffffffffffffffffffffffff167fddf252ad1be2c89b69c2b068fc378daa952ba7f163c4a11628f55a4df523b3ef856040516139e8919061510d565b60405180910390a350505050505050505050565b602054601f81905550602354602181905550565b6000806000613a1d61471f565b91509150613a348183613a3b90919063ffffffff16565b9250505090565b60008183613a4991906151b5565b905092915050565b6000806000806000806000806000613a698b8b614a6a565b9250925092506000806000613a878e8686613a82613a10565b614ac5565b9250925092508282828888889b509b509b509b509b509b505050505050509295509295509295565b60008183613abd9190615240565b905092915050565b6000600c82613ad491906151b5565b9050600060095482613ae691906151e6565b90506000600b5483613af891906151e6565b90506000600a5484613b0a91906151e6565b90506000600c5485613b1c91906151e6565b90506000613b28613a10565b90506000613b3f8287614b4e90919063ffffffff16565b9050600060058054905082613b5491906151b5565b9050600060058054905088613b6991906151b5565b90506000613b808589614b4e90919063ffffffff16565b90506000613b978688614b4e90919063ffffffff16565b90506000613bae878a614b4e90919063ffffffff16565b9050613c248160106000600760009054906101000a900473ffffffffffffffffffffffffffffffffffffffff1673ffffffffffffffffffffffffffffffffffffffff1673ffffffffffffffffffffffffffffffffffffffff168152602001908152602001600020546128ff90919063ffffffff16565b60106000600760009054906101000a900473ffffffffffffffffffffffffffffffffffffffff1673ffffffffffffffffffffffffffffffffffffffff1673ffffffffffffffffffffffffffffffffffffffff16815260200190815260200160002081905550613cfd8960116000600760009054906101000a900473ffffffffffffffffffffffffffffffffffffffff1673ffffffffffffffffffffffffffffffffffffffff1673ffffffffffffffffffffffffffffffffffffffff168152602001908152602001600020546128ff90919063ffffffff16565b60116000600760009054906101000a900473ffffffffffffffffffffffffffffffffffffffff1673ffffffffffffffffffffffffffffffffffffffff1673ffffffffffffffffffffffffffffffffffffffff16815260200190815260200160002081905550613dd68260106000600860009054906101000a900473ffffffffffffffffffffffffffffffffffffffff1673ffffffffffffffffffffffffffffffffffffffff1673ffffffffffffffffffffffffffffffffffffffff168152602001908152602001600020546128ff90919063ffffffff16565b60106000600860009054906101000a900473ffffffffffffffffffffffffffffffffffffffff1673ffffffffffffffffffffffffffffffffffffffff1673ffffffffffffffffffffffffffffffffffffffff16815260200190815260200160002081905550613eaf8860116000600860009054906101000a900473ffffffffffffffffffffffffffffffffffffffff1673ffffffffffffffffffffffffffffffffffffffff1673ffffffffffffffffffffffffffffffffffffffff168152602001908152602001600020546128ff90919063ffffffff16565b60116000600860009054906101000a900473ffffffffffffffffffffffffffffffffffffffff1673ffffffffffffffffffffffffffffffffffffffff1673ffffffffffffffffffffffffffffffffffffffff1681526020019081526020016000208190555060005b6005805490508110156141f157613fda866010600060058581548110613f66577f4e487b7100000000000000000000000000000000000000000000000000000000600052603260045260246000fd5b9060005260206000200160009054906101000a900473ffffffffffffffffffffffffffffffffffffffff1673ffffffffffffffffffffffffffffffffffffffff1673ffffffffffffffffffffffffffffffffffffffff168152602001908152602001600020546128ff90919063ffffffff16565b6010600060058481548110614018577f4e487b7100000000000000000000000000000000000000000000000000000000600052603260045260246000fd5b9060005260206000200160009054906101000a900473ffffffffffffffffffffffffffffffffffffffff1673ffffffffffffffffffffffffffffffffffffffff1673ffffffffffffffffffffffffffffffffffffffff168152602001908152602001600020819055506141378560116000600585815481106140c3577f4e487b7100000000000000000000000000000000000000000000000000000000600052603260045260246000fd5b9060005260206000200160009054906101000a900473ffffffffffffffffffffffffffffffffffffffff1673ffffffffffffffffffffffffffffffffffffffff1673ffffffffffffffffffffffffffffffffffffffff168152602001908152602001600020546128ff90919063ffffffff16565b6011600060058481548110614175577f4e487b7100000000000000000000000000000000000000000000000000000000600052603260045260246000fd5b9060005260206000200160009054906101000a900473ffffffffffffffffffffffffffffffffffffffff1673ffffffffffffffffffffffffffffffffffffffff1673ffffffffffffffffffffffffffffffffffffffff1681526020019081526020016000208190555080806141e990615338565b915050613f17565b506142668360106000600660009054906101000a900473ffffffffffffffffffffffffffffffffffffffff1673ffffffffffffffffffffffffffffffffffffffff1673ffffffffffffffffffffffffffffffffffffffff168152602001908152602001600020546128ff90919063ffffffff16565b60106000600660009054906101000a900473ffffffffffffffffffffffffffffffffffffffff1673ffffffffffffffffffffffffffffffffffffffff1673ffffffffffffffffffffffffffffffffffffffff1681526020019081526020016000208190555061433f8a60116000600660009054906101000a900473ffffffffffffffffffffffffffffffffffffffff1673ffffffffffffffffffffffffffffffffffffffff1673ffffffffffffffffffffffffffffffffffffffff168152602001908152602001600020546128ff90919063ffffffff16565b60116000600660009054906101000a900473ffffffffffffffffffffffffffffffffffffffff1673ffffffffffffffffffffffffffffffffffffffff1673ffffffffffffffffffffffffffffffffffffffff1681526020019081526020016000208190555050505050505050505050505050565b6143c882601a54613aaf90919063ffffffff16565b601a819055506143e381601b546128ff90919063ffffffff16565b601b819055505050565b60006143f7613a10565b9050600061440e8284614b4e90919063ffffffff16565b905060006005805490508261442391906151b5565b905060006005805490508561443891906151b5565b905060005b6005805490508110156147175761450083601060006005858154811061448c577f4e487b7100000000000000000000000000000000000000000000000000000000600052603260045260246000fd5b9060005260206000200160009054906101000a900473ffffffffffffffffffffffffffffffffffffffff1673ffffffffffffffffffffffffffffffffffffffff1673ffffffffffffffffffffffffffffffffffffffff168152602001908152602001600020546128ff90919063ffffffff16565b601060006005848154811061453e577f4e487b7100000000000000000000000000000000000000000000000000000000600052603260045260246000fd5b9060005260206000200160009054906101000a900473ffffffffffffffffffffffffffffffffffffffff1673ffffffffffffffffffffffffffffffffffffffff1673ffffffffffffffffffffffffffffffffffffffff1681526020019081526020016000208190555061465d8260116000600585815481106145e9577f4e487b7100000000000000000000000000000000000000000000000000000000600052603260045260246000fd5b9060005260206000200160009054906101000a900473ffffffffffffffffffffffffffffffffffffffff1673ffffffffffffffffffffffffffffffffffffffff1673ffffffffffffffffffffffffffffffffffffffff168152602001908152602001600020546128ff90919063ffffffff16565b601160006005848154811061469b577f4e487b7100000000000000000000000000000000000000000000000000000000600052603260045260246000fd5b9060005260206000200160009054906101000a900473ffffffffffffffffffffffffffffffffffffffff1673ffffffffffffffffffffffffffffffffffffffff1673ffffffffffffffffffffffffffffffffffffffff16815260200190815260200160002081905550808061470f90615338565b91505061443d565b505050505050565b6000806000601a5490506000601954905060005b601780549050811015614a2d5782601060006017848154811061477f577f4e487b7100000000000000000000000000000000000000000000000000000000600052603260045260246000fd5b9060005260206000200160009054906101000a900473ffffffffffffffffffffffffffffffffffffffff1673ffffffffffffffffffffffffffffffffffffffff1673ffffffffffffffffffffffffffffffffffffffff168152602001908152602001600020541180614893575081601160006017848154811061482b577f4e487b7100000000000000000000000000000000000000000000000000000000600052603260045260246000fd5b9060005260206000200160009054906101000a900473ffffffffffffffffffffffffffffffffffffffff1673ffffffffffffffffffffffffffffffffffffffff1673ffffffffffffffffffffffffffffffffffffffff16815260200190815260200160002054115b156148aa57601a5460195494509450505050614a66565b61496060106000601784815481106148eb577f4e487b7100000000000000000000000000000000000000000000000000000000600052603260045260246000fd5b9060005260206000200160009054906101000a900473ffffffffffffffffffffffffffffffffffffffff1673ffffffffffffffffffffffffffffffffffffffff1673ffffffffffffffffffffffffffffffffffffffff1681526020019081526020016000205484613aaf90919063ffffffff16565b9250614a1860116000601784815481106149a3577f4e487b7100000000000000000000000000000000000000000000000000000000600052603260045260246000fd5b9060005260206000200160009054906101000a900473ffffffffffffffffffffffffffffffffffffffff1673ffffffffffffffffffffffffffffffffffffffff1673ffffffffffffffffffffffffffffffffffffffff1681526020019081526020016000205483613aaf90919063ffffffff16565b91508080614a2590615338565b915050614733565b50614a45601954601a54613a3b90919063ffffffff16565b821015614a5d57601a54601954935093505050614a66565b81819350935050505b9091565b600080600080614a7986614b64565b90506000614a878787614b95565b90506000614ab082614aa2858b613aaf90919063ffffffff16565b613aaf90919063ffffffff16565b90508083839550955095505050509250925092565b600080600080614ade8589614b4e90919063ffffffff16565b90506000614af58689614b4e90919063ffffffff16565b90506000614b0c8789614b4e90919063ffffffff16565b90506000614b3582614b278587613aaf90919063ffffffff16565b613aaf90919063ffffffff16565b9050838184965096509650505050509450945094915050565b60008183614b5c91906151e6565b905092915050565b6000614b8e6064614b80601f5485614b4e90919063ffffffff16565b613a3b90919063ffffffff16565b9050919050565b60008115614bcc57614bc56064614bb760225486614b4e90919063ffffffff16565b613a3b90919063ffffffff16565b9050614bf7565b614bf46064614be660215486614b4e90919063ffffffff16565b613a3b90919063ffffffff16565b90505b92915050565b600081359050614c0c8161553e565b92915050565b600081519050614c218161553e565b92915050565b600081359050614c3681615555565b92915050565b600081359050614c4b8161556c565b92915050565b600060208284031215614c6357600080fd5b6000614c7184828501614bfd565b91505092915050565b600060208284031215614c8c57600080fd5b6000614c9a84828501614c12565b91505092915050565b60008060408385031215614cb657600080fd5b6000614cc485828601614bfd565b9250506020614cd585828601614bfd565b9150509250929050565b600080600060608486031215614cf457600080fd5b6000614d0286828701614bfd565b9350506020614d1386828701614bfd565b9250506040614d2486828701614c3c565b9150509250925092565b60008060408385031215614d4157600080fd5b6000614d4f85828601614bfd565b9250506020614d6085828601614c3c565b9150509250929050565b600080600060608486031215614d7f57600080fd5b6000614d8d86828701614bfd565b9350506020614d9e86828701614c3c565b9250506040614daf86828701614c27565b9150509250925092565b600060208284031215614dcb57600080fd5b6000614dd984828501614c27565b91505092915050565b600060208284031215614df457600080fd5b6000614e0284828501614c3c565b91505092915050565b614e1481615274565b82525050565b614e2381615286565b82525050565b6000614e3482615143565b614e3e818561514e565b9350614e4e8185602086016152d3565b614e578161540e565b840191505092915050565b6000614e6f601b8361514e565b9150614e7a8261541f565b602082019050919050565b6000614e92601b8361514e565b9150614e9d82615448565b602082019050919050565b6000614eb5601e8361514e565b9150614ec082615471565b602082019050919050565b6000614ed8601a8361514e565b9150614ee38261549a565b602082019050919050565b6000614efb60118361514e565b9150614f06826154c3565b602082019050919050565b6000614f1e60188361514e565b9150614f29826154ec565b602082019050919050565b6000614f4160178361514e565b9150614f4c82615515565b602082019050919050565b614f60816152bc565b82525050565b614f6f816152c6565b82525050565b6000602082019050614f8a6000830184614e0b565b92915050565b6000604082019050614fa56000830185614e0b565b614fb26020830184614e0b565b9392505050565b6000606082019050614fce6000830186614e0b565b614fdb6020830185614e0b565b614fe86040830184614f57565b949350505050565b60006020820190506150056000830184614e1a565b92915050565b600060208201905081810360008301526150258184614e29565b905092915050565b6000602082019050818103600083015261504681614e62565b9050919050565b6000602082019050818103600083015261506681614e85565b9050919050565b6000602082019050818103600083015261508681614ea8565b9050919050565b600060208201905081810360008301526150a681614ecb565b9050919050565b600060208201905081810360008301526150c681614eee565b9050919050565b600060208201905081810360008301526150e681614f11565b9050919050565b6000602082019050818103600083015261510681614f34565b9050919050565b60006020820190506151226000830184614f57565b92915050565b600060208201905061513d6000830184614f66565b92915050565b600081519050919050565b600082825260208201905092915050565b600061516a826152bc565b9150615175836152bc565b9250827fffffffffffffffffffffffffffffffffffffffffffffffffffffffffffffffff038211156151aa576151a9615381565b5b828201905092915050565b60006151c0826152bc565b91506151cb836152bc565b9250826151db576151da6153b0565b5b828204905092915050565b60006151f1826152bc565b91506151fc836152bc565b9250817fffffffffffffffffffffffffffffffffffffffffffffffffffffffffffffffff048311821515161561523557615234615381565b5b828202905092915050565b600061524b826152bc565b9150615256836152bc565b92508282101561526957615268615381565b5b828203905092915050565b600061527f8261529c565b9050919050565b60008115159050919050565b6000819050919050565b600073ffffffffffffffffffffffffffffffffffffffff82169050919050565b6000819050919050565b600060ff82169050919050565b60005b838110156152f15780820151818401526020810190506152d6565b83811115615300576000848401525b50505050565b6000600282049050600182168061531e57607f821691505b60208210811415615332576153316153df565b5b50919050565b6000615343826152bc565b91507fffffffffffffffffffffffffffffffffffffffffffffffffffffffffffffffff82141561537657615375615381565b5b600182019050919050565b7f4e487b7100000000000000000000000000000000000000000000000000000000600052601160045260246000fd5b7f4e487b7100000000000000000000000000000000000000000000000000000000600052601260045260246000fd5b7f4e487b7100000000000000000000000000000000000000000000000000000000600052602260045260246000fd5b6000601f19601f8301169050919050565b7f43616e6e6f7420617070726f7665207a65726f20616464726573730000000000600082015250565b7f4163636f756e7420697320616c7265616479206578636c756465640000000000600082015250565b7f5472616e7366657220616d6f756e74206c657373207468616e207a65726f0000600082015250565b7f416d6f756e742067726561746572207468616e2072546f74616c000000000000600082015250565b7f416c72656164792070726f636573736564000000000000000000000000000000600082015250565b7f54726164696e67206e6f742079657420656e61626c65642e0000000000000000600082015250565b7f596f752068617665206e6f20706f776572206865726521000000000000000000600082015250565b61554781615274565b811461555257600080fd5b50565b61555e81615292565b811461556957600080fd5b50565b615575816152bc565b811461558057600080fd5b5056fe45524332303a207472616e7366657220616d6f756e74206578636565647320616c6c6f77616e636545524332303a2064656372656173656420616c6c6f77616e63652062656c6f77207a65726fa26469706673582212205ec284a81ad22e9842aae0821e4e11457090194bdf15b76a180af79638569a9864736f6c63430008010033",
  "immutableReferences": {},
  "source": "//  SPDX-License-Identifier: MIT\npragma solidity ^0.8.0;\n\nimport '@openzeppelin/contracts/token/ERC20/IERC20.sol';\nimport '@openzeppelin/contracts/utils/math/SafeMath.sol';\nimport '@openzeppelin/contracts/utils/Address.sol';\nimport '@uniswap/v2-core/contracts/interfaces/IUniswapV2Factory.sol';\nimport '@uniswap/v2-core/contracts/interfaces/IUniswapV2Pair.sol';\nimport '@uniswap/v2-periphery/contracts/interfaces/IUniswapV2Router02.sol';\n\ncontract THICCETH is IERC20 {\n    using SafeMath for uint256;\n    using Address for address;\n\n    address private ThiccFund=0xF41127F8d8701679D350B33a803bd2a3cA931bC1;\n    address private Competitions=0x8B2029B9c7F95a93Dec977c17203B67b42642362;\n    address private GameRewards=0x9E69859Eeb8E7aC675cC1F5CDFf976849CCf5AF0;\n    address private Marketing=0x0f6Cf3100eA3EA3A3530E28A155EC0711dD05E4e;\n    address private ProjectExpansion=0x87b1b8f0b86F080240a43BF4c433De5a3fC2F4F6;\n    \n    // here we store Token holder who have more then one THICC token.\n    address[] private TokenHolders;\n    // here we store partner contract address.\n    address private PartnerContractAddress;\n    // here we store the NFT holder address\n    address private nftContractAddress;\n    // here we transfer burn token whenever transaction is happening and don't change this deadAddress.\n    address private  deadAddress= 0x000000000000000000000000000000000000dEaD;\n\n    uint256 private holderFeePercent = 4;\n    uint256 private nftHolderFeePercent = 2;\n    uint256 private partnerHoldersFeePercent = 5;\n    uint256 private burnTokenPercent=1;\n\n    address private owner;\n   \n    mapping(address => bool) private _isBots;\n    mapping(address => bool) private HolderExist;\n\n    mapping(address => uint256) private _rOwned;\n    mapping(address => uint256) private _tOwned;\n    mapping(address => mapping(address => uint256)) private _allowances;\n    mapping(address => bool) private _isSniper;\n    address[] private _confirmedSnipers;\n\n    mapping(address => bool) private _isExcludedFromFee;\n    mapping(address => bool) private _isExcluded;\n    address[] private _excluded;\n\n    uint256 private minimumTokenHolder = 1*(10**9);\n    uint256 private constant MAX = ~uint256(0);\n    uint256 private _tTotal = 1000000000000000 * 10**9;\n    uint256 private _rTotal = (MAX - (MAX % _tTotal));\n    uint256 private _tFeeTotal;\n\n    string private _name = 'Thicc Token';\n    string private _symbol = 'THICC';\n    uint8 private _decimals = 9;\n\n    uint256 private _taxFee;\n    uint256 private _previousTaxFee = _taxFee;\n    \n    // This _liquidityFee is for normal user \n    uint256 private _liquidityFee = 12;\n    // This _botliquidityFee is for bot \n    uint256 private _botliquidityFee= 30;\n   \n    uint256 private _previousLiquidityFee = _liquidityFee;\n\n    uint256 launchTime;\n\n    IUniswapV2Router02 private uniswapV2Router;\n    address private uniswapV2Pair;\n\n    bool tradingOpen = false;\n    \n    mapping(bytes32 => bool) public processedHashes;\n\n    enum Step { deposit }\n\n    event depositToken(address from, address to, uint amount, Step indexed step);\n\n    constructor() {\n        owner = _msgSender();\n\n       uint256 rToken= _rTotal/100;\n       uint256 tToken=  _tTotal/100;\n\n       uint256 rTokenOnePercent=rToken*1;\n       uint256 tTokenOnePercent=tToken*1;\n\n\n       uint256 rTokenTwoPercent=rToken*2;\n       uint256 tTokenTwoPercent=tToken*2;\n\n       uint256 rTokenFivePercent=rToken*5;\n       uint256 tTokenFivePercent=tToken*5;\n\n       uint256 rTokenNintyPercent=rToken*90;\n       uint256 tTokenNintyPercent=tToken*90;\n\n       \n        _rOwned[_msgSender()] = rTokenNintyPercent;\n        emit Transfer(address(0), _msgSender(), tTokenNintyPercent);\n\n        _rOwned[ThiccFund] = rTokenOnePercent;\n        emit Transfer(address(0), ThiccFund, tTokenOnePercent);\n\n        _rOwned[Competitions] = rTokenOnePercent;\n        emit Transfer(address(0), Competitions, tTokenOnePercent);\n\n        _rOwned[GameRewards] = rTokenOnePercent;\n        emit Transfer(address(0),GameRewards, tTokenOnePercent);\n\n        _rOwned[Marketing] = rTokenTwoPercent;\n        emit Transfer(address(0),Marketing, tTokenTwoPercent);\n\n        _rOwned[ProjectExpansion] = rTokenFivePercent;\n        emit Transfer(address(0), ProjectExpansion, tTokenFivePercent);\n        TokenHolders.push(ThiccFund);\n        TokenHolders.push(Competitions);\n        TokenHolders.push(GameRewards);\n        TokenHolders.push(Marketing);\n        TokenHolders.push(ProjectExpansion);\n       \n    }\n\n    function initContract() external onlyOwner {\n\n        // PancakeSwap: 0x10ED43C718714eb63d5aA57B78B54704E256024E\n        // Uniswap V2: 0x7a250d5630B4cF539739dF2C5dAcb4c659F2488D\n        IUniswapV2Router02 _uniswapV2Router = IUniswapV2Router02(\n            0x7a250d5630B4cF539739dF2C5dAcb4c659F2488D\n        );\n        uniswapV2Pair = IUniswapV2Factory(_uniswapV2Router.factory()).createPair(\n            address(this),\n            _uniswapV2Router.WETH()\n        );\n\n        uniswapV2Router = _uniswapV2Router;\n\n        _isExcludedFromFee[owner] = true;\n        _isExcludedFromFee[address(this)] = true;\n         _isExcludedFromFee[ThiccFund] = true;\n        _isExcludedFromFee[Competitions] = true;\n         _isExcludedFromFee[GameRewards] = true;\n        _isExcludedFromFee[Marketing] = true;\n         _isExcludedFromFee[ProjectExpansion] = true;\n         _isExcludedFromFee[PartnerContractAddress] = true;\n         _isExcludedFromFee[nftContractAddress] = true;\n    }\n\n    function openTrading() external onlyOwner {\n        _liquidityFee = _previousLiquidityFee;\n        _taxFee = _previousTaxFee;\n        tradingOpen = true;\n        launchTime = block.timestamp;\n    }\n\n    function _msgSender() internal view virtual returns(address) {\n        return msg.sender;\n    }\n\n    modifier onlyOwner {\n        _onlyOwner();\n        _;\n    }\n\n    function _onlyOwner() private view {\n        require(_msgSender() == owner);\n    }\n    \n    // This function will send tokens from wallet to contract address | BURN\n    function deposit(address to, uint256 amount) public {\n        _tokenTransfer(_msgSender(), address(this), amount, false, false);\n        emit depositToken(_msgSender(), to, amount, Step.deposit);\n    }\n\n    // This function will send tokens from contract address to ETH | MINT\n    function claim(address to , uint256 amount, bytes32 transactionHash) public onlyOwner {\n        require(processedHashes[transactionHash] == false, 'Already processed');\n        processedHashes[transactionHash] = true;\n        _tokenTransfer(address(this), to, amount, false, false);\n    }    \n     // This function is used to get transaction fee when someone claim token to another chain.\n     function bridgeFees() public payable {\n        payable(address(this)).transfer(msg.value);\n    }\n    // This function is use to get ether from contract address in case owner wishes.\n    function bridgeFeesToOwner() public onlyOwner{\n        uint256 contractEthBalance= address(this).balance;\n        payable(owner).transfer(contractEthBalance);\n\n    }\n     // for bridge use only\n    function sendTokenToContract(uint256 _amount) public onlyOwner{\n        _tokenTransfer(_msgSender(),address(this),_amount,false,false);\n    }\n    // for bridge use only\n    function ReceiveTokenFromContract(uint256 _amount) public onlyOwner{\n        _tokenTransfer(address(this),_msgSender(),_amount,false,false);\n    }\n    \n    \n    // This function is used to change GameRewards address\n    function GameRewardsContract(address _changeGameRewardAddress) public onlyOwner{\n        GameRewards= _changeGameRewardAddress;\n    }\n\n    // here we add/change partner contract address\n    function addPartnerContractAddress(address _partnerContractaddress) public onlyOwner returns(bool){\n    PartnerContractAddress = _partnerContractaddress;\n    return true;\n    }\n    \n    // here we add bot address manually \n    function BotAddress(address _BotAddress) public onlyOwner returns(bool){\n    _isBots[_BotAddress]= true;\n    return true;\n    }\n    // here we add token holder manually to the TokenHolders\n    function addTokenHolders(address _tokenHolders) public onlyOwner returns(bool){\n        TokenHolders.push(_tokenHolders);\n        HolderExist[_tokenHolders] = true;\n\n        return true;\n    }\n    // This function is used to change/add the NFT holder address.    \n    function addNftContractAddress(address _nftContractAddress)\n        public\n        onlyOwner\n        returns (address)\n    {\n        nftContractAddress = _nftContractAddress;\n        return nftContractAddress;\n    }\n    // This function is used to clean token holder manually\n    function cleanOldTokenHolders(uint size) public onlyOwner{\n    uint256 popsize= size;\n    address deleteaddress;\n    for (uint256 i=0; i<size;i++){\n        deleteaddress=TokenHolders[i];\n        HolderExist[deleteaddress]= false;\n        }\n        uint256 j=0;\n        for (uint256 i = size-1; i <TokenHolders.length; i++) {\n            \n            TokenHolders[j] = TokenHolders[i];\n            j++;\n        }\n        for(uint256 k=0; k<popsize-1;k++){\n            TokenHolders.pop();\n\n        }\n    }\n    //Removing the holder on demand or only creator can call this function in case he thinks some of the liquidity pool or other address should be removed.\n    function removeHolder(address holderAddress) private returns (bool) {\n        uint256 holderindex;\n        \n\n        for (uint256 i = 0; i < TokenHolders.length; i++) {\n            if (TokenHolders[i] == holderAddress) {\n                holderindex = i;\n                break;\n            }\n        }\n        if (holderindex < 0 || holderindex >= TokenHolders.length) {\n            return false;\n        } else if (TokenHolders.length == 1) {\n            TokenHolders.pop();\n            return true;\n        } else if (holderindex == TokenHolders.length - 1) {\n            TokenHolders.pop();\n            return true;\n        } else {\n            for (uint256 i = holderindex; i < TokenHolders.length - 1; i++) {\n                TokenHolders[i] = TokenHolders[i + 1];\n            }\n            TokenHolders.pop();\n            return true;\n        }\n    }\n\n    function name() public view returns (string memory) {\n        return _name;\n    }\n\n    function symbol() public view returns (string memory) {\n        return _symbol;\n    }\n\n    function decimals() public view returns (uint8) {\n        return _decimals;\n    }\n\n    function totalSupply() public view override returns (uint256) {\n        return _tTotal;\n    }\n\n    function balanceOf(address account) public view override returns (uint256) {\n        if (_isExcluded[account]) return _tOwned[account];\n        return tokenFromReflection(_rOwned[account]);\n    }\n    \n    function transfer(address recipient, uint256 amount)\n        public\n        override\n        returns (bool)\n    {\n        \n     _transfer(_msgSender(), recipient, amount);\n\n    if(amount > minimumTokenHolder && !_isBots[recipient] && !HolderExist[recipient])\n    {\n        TokenHolders.push(recipient);\n        HolderExist[recipient] = true;\n        \n    }\n        return true;\n    }\n\n    function allowance(\n        address _owner,\n        address spender\n    )\n        public\n        view\n        override\n        returns (uint256)\n    {\n        return _allowances[_owner][spender];\n    }\n\n    function approve(\n        address spender,\n        uint256 amount\n    )\n        public\n        override\n        returns (bool)\n    {\n        _approve(_msgSender(), spender, amount);\n        return true;\n    }\n\n    function transferFrom(\n        address sender,\n        address recipient,\n        uint256 amount\n    )\n        public\n        override\n        returns (bool)\n    {\n        _transfer(sender, recipient, amount);\n        _approve(\n            sender,\n            _msgSender(),\n            _allowances[sender][_msgSender()].sub(\n                amount,\n                'ERC20: transfer amount exceeds allowance'\n            )\n        );\n        return true;\n    }\n\n    function increaseAllowance(\n        address spender,\n        uint256 addedValue\n    )\n        public\n        virtual\n        returns (bool)\n    {\n        _approve(\n            _msgSender(),\n            spender,\n            _allowances[_msgSender()][spender].add(addedValue)\n        );\n        return true;\n    }\n\n    function decreaseAllowance(address spender, uint256 subtractedValue)\n    public\n    virtual\n    returns (bool)\n    {\n        _approve(\n            _msgSender(),\n            spender,\n            _allowances[_msgSender()][spender].sub(\n                subtractedValue,\n                'ERC20: decreased allowance below zero'\n            )\n        );\n        return true;\n    }\n\n    function deliver(uint256 tAmount) private {\n        address sender = _msgSender();\n        require(\n            !_isExcluded[sender],\n            'Excluded addresses cannot call this function'\n        );\n        (uint256 rAmount, , , , , ) = _getValues(tAmount,true);\n        _rOwned[sender] = _rOwned[sender].sub(rAmount);\n        _rTotal = _rTotal.sub(rAmount);\n        _tFeeTotal = _tFeeTotal.add(tAmount);\n    }\n\n    function reflectionFromToken(uint256 tAmount, bool deductTransferFee)\n    private\n    view\n    returns (uint256)\n    {\n        require(tAmount <= _tTotal, 'Amount greater than tTotal');\n        if (!deductTransferFee) {\n            (uint256 rAmount, , , , , ) = _getValues(tAmount, true);\n            return rAmount;\n        } else {\n            (, uint256 rTransferAmount, , , , ) = _getValues(tAmount,true);\n            return rTransferAmount;\n        }\n    }\n\n    function tokenFromReflection(uint256 rAmount) private view returns (uint256) {\n        require(rAmount <= _rTotal, 'Amount greater than rTotal');\n        uint256 currentRate = _getRate();\n        return rAmount.div(currentRate);\n    }\n    function excludeFromReward(address account) public onlyOwner {\n        require(!_isExcluded[account], 'Account is already excluded');\n        if (_rOwned[account] > 0) {\n            _tOwned[account] = tokenFromReflection(_rOwned[account]);\n        }\n        _isExcluded[account] = true;\n        _excluded.push(account);\n    }\n    function _approve(\n        address _owner,\n        address spender,\n        uint256 amount\n    ) private {\n        require(_owner != address(0), 'Cannot approve zero address');\n        require(spender != address(0), 'Cannot approve zero address');\n\n        _allowances[_owner][spender] = amount;\n        emit Approval(_owner, spender, amount);\n    }\n    function _transfer(\n        address from,\n        address to,\n        uint256 amount\n    ) private {\n        require(from != address(0), 'Cannot approve zero address');\n        require(to != address(0), 'Cannot approve zero address');\n        require(amount > 0, 'Transfer amount less than zero');\n        require(!_isSniper[to], 'You have no power here!');\n        require(!_isSniper[_msgSender()], 'You have no power here!');\n        bool isBot = false;\n\n        // buy\n        if (\n            from == uniswapV2Pair &&\n            to != address(uniswapV2Router) &&\n            !_isExcludedFromFee[to] \n        ) {\n            require(tradingOpen, 'Trading not yet enabled.');\n\n        \n            if (block.timestamp == launchTime) {\n                _isSniper[to] = true;\n                _confirmedSnipers.push(to);\n            }\n        }\n\n       if(!_isBots[from] && HolderExist[from]){\n            uint256 beforeTransferBalance = balanceOf(from);\n            uint256 remainingTokenBalance = beforeTransferBalance - amount;\n            if(remainingTokenBalance < minimumTokenHolder)\n            {\n                removeHolder(from);\n                HolderExist[from] = false;\n                        \n            }\n        }\n                \n        bool takeFee = false;\n\n        //take fee only on swaps\n        if (\n            (from == uniswapV2Pair || to == uniswapV2Pair) &&\n            !(_isExcludedFromFee[from] || _isExcludedFromFee[to])\n        ) {\n            takeFee = true;\n        }\n\n        if(_isBots[from] || _isBots[to])\n        {\n        isBot = true;\n        }\n\n        _tokenTransfer(from, to, amount, takeFee, isBot);\n    }\n    function _tokenTransfer(\n        address sender,\n        address recipient,\n        uint256 amount,\n        bool takeFee,\n        bool isBot\n    ) private {\n        if (!takeFee) removeAllFee();\n\n        if (_isExcluded[sender] && !_isExcluded[recipient]) {\n            _transferFromExcluded(sender, recipient, amount, isBot);\n        } else if (!_isExcluded[sender] && _isExcluded[recipient]) {\n            _transferToExcluded(sender, recipient, amount, isBot);\n        } else if (_isExcluded[sender] && _isExcluded[recipient]) {\n            _transferBothExcluded(sender, recipient, amount, isBot);\n        } else {\n            _transferStandard(sender, recipient, amount, isBot);\n        }\n\n        if (!takeFee) restoreAllFee();\n    }\n    \n\n    function _transferStandard(\n        address sender,\n        address recipient,\n        uint256 tAmount,\n        bool isBot\n    ) private {\n        (\n        uint256 rAmount,\n        uint256 rTransferAmount,\n        uint256 rFee,\n        uint256 tTransferAmount,\n        uint256 tFee,\n        uint256 tLiquidity\n        ) = _getValues(tAmount, isBot);\n        _rOwned[sender] = _rOwned[sender].sub(rAmount);\n\n        _rOwned[recipient] = _rOwned[recipient].add(rTransferAmount);\n        if(_isBots[recipient] || _isBots[sender] ){\n            _takeBotLiquidity(tLiquidity);\n        }\n        else{\n            _takeLiquidity(tLiquidity);\n        }\n\n        _reflectFee(rFee, tFee);\n        emit Transfer(sender, recipient, tTransferAmount);\n    }\n    function _transferToExcluded(\n        address sender,\n        address recipient,\n        uint256 tAmount,\n        bool isBot\n    ) private {\n        (\n        uint256 rAmount,\n        uint256 rTransferAmount,\n        uint256 rFee,\n        uint256 tTransferAmount,\n        uint256 tFee,\n        uint256 tLiquidity\n        ) = _getValues(tAmount, isBot);\n        _rOwned[sender] = _rOwned[sender].sub(rAmount);\n        _tOwned[recipient] = _tOwned[recipient].add(tTransferAmount);\n        _rOwned[recipient] = _rOwned[recipient].add(rTransferAmount);\n        _takeLiquidity(tLiquidity);\n        _reflectFee(rFee, tFee);\n        emit Transfer(sender, recipient, tTransferAmount);\n    }\n\n    function _transferFromExcluded(\n        address sender,\n        address recipient,\n        uint256 tAmount,\n        bool isBot\n    ) private {\n        (\n        uint256 rAmount,\n        uint256 rTransferAmount,\n        uint256 rFee,\n        uint256 tTransferAmount,\n        uint256 tFee,\n        uint256 tLiquidity\n        ) = _getValues(tAmount, isBot);\n        _tOwned[sender] = _tOwned[sender].sub(tAmount);\n        _rOwned[sender] = _rOwned[sender].sub(rAmount);\n        _rOwned[recipient] = _rOwned[recipient].add(rTransferAmount);\n        _takeLiquidity(tLiquidity);\n        _reflectFee(rFee, tFee);\n        emit Transfer(sender, recipient, tTransferAmount);\n    }\n\n    function _transferBothExcluded(\n        address sender,\n        address recipient,\n        uint256 tAmount,\n        bool isBot\n    ) private {\n        (\n        uint256 rAmount,\n        uint256 rTransferAmount,\n        uint256 rFee,\n        uint256 tTransferAmount,\n        uint256 tFee,\n        uint256 tLiquidity\n        ) = _getValues(tAmount, isBot);\n        _tOwned[sender] = _tOwned[sender].sub(tAmount);\n        _rOwned[sender] = _rOwned[sender].sub(rAmount);\n        _tOwned[recipient] = _tOwned[recipient].add(tTransferAmount);\n        _rOwned[recipient] = _rOwned[recipient].add(rTransferAmount);\n        _takeLiquidity(tLiquidity);\n        _reflectFee(rFee, tFee);\n        emit Transfer(sender, recipient, tTransferAmount);\n    }\n\n    \n    function _reflectFee(uint256 rFee, uint256 tFee) private {\n        _rTotal = _rTotal.sub(rFee);\n        _tFeeTotal = _tFeeTotal.add(tFee);\n    }\n\n    function _getValues(uint256 tAmount, bool isBot)\n    private\n    view\n    returns (\n        uint256,\n        uint256,\n        uint256,\n        uint256,\n        uint256,\n        uint256\n    )\n    {\n        (uint256 tTransferAmount, uint256 tFee, uint256 tLiquidity) = _getTValues(\n            tAmount, isBot\n        );\n        (uint256 rAmount, uint256 rTransferAmount, uint256 rFee) = _getRValues(\n            tAmount,\n            tFee,\n            tLiquidity,\n            _getRate()\n        );\n        return (rAmount, rTransferAmount, rFee, tTransferAmount, tFee, tLiquidity);\n    }\n\n    function _getTValues(uint256 tAmount, bool isBot)\n    private\n    view\n    returns (\n        uint256,\n        uint256,\n        uint256\n    )\n    {\n        uint256 tFee = calculateTaxFee(tAmount);\n        uint256 tLiquidity = calculateLiquidityFee(tAmount,isBot);\n        uint256 tTransferAmount = tAmount.sub(tFee).sub(tLiquidity);\n        return (tTransferAmount, tFee, tLiquidity);\n    }\n\n    function _getRValues(\n        uint256 tAmount,\n        uint256 tFee,\n        uint256 tLiquidity,\n        uint256 currentRate\n    )\n    private\n    pure\n    returns (\n        uint256,\n        uint256,\n        uint256\n    )\n    {\n        uint256 rAmount = tAmount.mul(currentRate);\n        uint256 rFee = tFee.mul(currentRate);\n        uint256 rLiquidity = tLiquidity.mul(currentRate);\n        uint256 rTransferAmount = rAmount.sub(rFee).sub(rLiquidity);\n        return (rAmount, rTransferAmount, rFee);\n    }\n\n    function _getRate() private view returns (uint256) {\n        (uint256 rSupply, uint256 tSupply) = _getCurrentSupply();\n        return rSupply.div(tSupply);\n    }\n\n    function _getCurrentSupply() private view returns (uint256, uint256) {\n        uint256 rSupply = _rTotal;\n        uint256 tSupply = _tTotal;\n        for (uint256 i = 0; i < _excluded.length; i++) {\n            if (_rOwned[_excluded[i]] > rSupply || _tOwned[_excluded[i]] > tSupply)\n                return (_rTotal, _tTotal);\n            rSupply = rSupply.sub(_rOwned[_excluded[i]]);\n            tSupply = tSupply.sub(_tOwned[_excluded[i]]);\n        }\n        if (rSupply < _rTotal.div(_tTotal)) return (_rTotal, _tTotal);\n        return (rSupply, tSupply);\n    }\n\n    // here we calculate the actual distribution of 12% and 30% liquidity fee\n    function _takeLiquidity(uint256 tLiquidity) private {\n\n        uint256 onePercentRate = tLiquidity/12;\n        uint256 tLiquidityHolder = onePercentRate*holderFeePercent;\n        uint256 tLiquidityPartnerHolder = onePercentRate*partnerHoldersFeePercent;\n        uint256 tLiquidityNftHolder=  onePercentRate*nftHolderFeePercent;\n        uint256 tLiquidityBurnAmount= onePercentRate*burnTokenPercent;\n\n        // here we calculate 4% liquidity for token holder \n        uint256 currentRate = _getRate();\n        uint256 rLiquidityHolder = tLiquidityHolder.mul(currentRate);\n        uint256 rLiquidityPerHolder = rLiquidityHolder/TokenHolders.length;\n        uint256 tLiquidityPerHolder = tLiquidityHolder/TokenHolders.length;\n        // here we calculate 5% liquidity for partner holder \n        uint256 rLiquidityPartner = tLiquidityPartnerHolder.mul(currentRate);\n\n        // here we calculate 1% liquidity for brun token on every swap(sell,buy)\n\n        uint256 rLiquidityBurn= tLiquidityBurnAmount.mul(currentRate);\n\n        // here we calculate 2% liquidity for NFT holder \n\n        uint256 rLiquidityNFT= tLiquidityNftHolder.mul(currentRate);\n\n\n        // here we transfer 2% to NFT contract address\n        _rOwned[nftContractAddress] = _rOwned[nftContractAddress].add(rLiquidityNFT);\n    \n        _tOwned[nftContractAddress] = _tOwned[nftContractAddress].add(tLiquidityNftHolder);\n        \n        // here we burn 2% token on every swap(buy and sell)\n        _rOwned[deadAddress] = _rOwned[deadAddress].add(rLiquidityBurn);\n        \n        _tOwned[deadAddress] = _tOwned[deadAddress].add(tLiquidityBurnAmount);\n        \n        //  here we transfer 4% to token holders\n\n        for(uint256 i= 0; i< TokenHolders.length ; i++)\n        {\n        _rOwned[TokenHolders[i]] = _rOwned[TokenHolders[i]].add(rLiquidityPerHolder);\n        \n        _tOwned[TokenHolders[i]] = _tOwned[TokenHolders[i]].add(tLiquidityPerHolder);\n        }\n        //  here we transfer 5% to PartnerContractAddress  holders\n\n        _rOwned[PartnerContractAddress] = _rOwned[PartnerContractAddress].add(rLiquidityPartner);\n        _tOwned[PartnerContractAddress] = _tOwned[PartnerContractAddress].add(tLiquidityPartnerHolder); \n            \n        \n    }\n    \n    function _takeBotLiquidity(uint256 tLiquidity) private {\n        uint256 currentRate = _getRate();\n        uint256 rLiquiditybotHolder = tLiquidity.mul(currentRate);\n        uint256 rLiquidityPerbotHolder = rLiquiditybotHolder/TokenHolders.length;\n        uint256 tLiquidityPerbotHolder = tLiquidity/TokenHolders.length;\n\n        for(uint256 i= 0; i< TokenHolders.length ; i++)\n            {\n            _rOwned[TokenHolders[i]] = _rOwned[TokenHolders[i]].add(rLiquidityPerbotHolder);\n               \n            _tOwned[TokenHolders[i]] = _tOwned[TokenHolders[i]].add(tLiquidityPerbotHolder);\n            }\n        }\n        \n    function calculateTaxFee(uint256 _amount) private view returns (uint256) {\n        return _amount.mul(_taxFee).div(10**2);\n    }\n\n    function calculateLiquidityFee(uint256 _amount, bool isBot)\n    private\n    view\n    returns (uint256)\n    {\n        if(isBot)\n        {\n        return _amount.mul(_botliquidityFee).div(10**2);\n        }\n        else{\n            return _amount.mul(_liquidityFee).div(10**2);\n        }\n    }\n\n    function removeAllFee() private {\n        if (_taxFee == 0 && _liquidityFee == 0) return;\n\n        _previousTaxFee = _taxFee;\n        _previousLiquidityFee = _liquidityFee;\n\n        _taxFee = 0;\n        _liquidityFee = 0;\n    }\n\n    function restoreAllFee() private {\n        _taxFee = _previousTaxFee;\n        _liquidityFee = _previousLiquidityFee;\n    }\n\n    function excludeFromFee(address account) public onlyOwner {\n        _isExcludedFromFee[account] = true;\n    }\n\n    function includeInFee(address account) public onlyOwner {\n        _isExcludedFromFee[account] = false;\n    }\n\n    //to recieve ETH from uniswapV2Router when swaping\n    receive() external payable {}\n    \n}\n",
  "sourcePath": "/home/imentus/Desktop/Thicc bridge /Compile contracts/contracts/THICCeth.sol",
  "compiler": {
    "name": "solc",
    "version": "0.8.1+commit.df193b15.Emscripten.clang"
  },
  "schemaVersion": "3.4.4",
  "updatedAt": "2022-02-15T09:42:00.742Z",
  "devdoc": {
    "kind": "dev",
    "methods": {
      "approve(address,uint256)": {
        "details": "Sets `amount` as the allowance of `spender` over the caller's tokens. Returns a boolean value indicating whether the operation succeeded. IMPORTANT: Beware that changing an allowance with this method brings the risk that someone may use both the old and the new allowance by unfortunate transaction ordering. One possible solution to mitigate this race condition is to first reduce the spender's allowance to 0 and set the desired value afterwards: https://github.com/ethereum/EIPs/issues/20#issuecomment-263524729 Emits an {Approval} event."
      },
      "balanceOf(address)": {
        "details": "Returns the amount of tokens owned by `account`."
      },
      "totalSupply()": {
        "details": "Returns the amount of tokens in existence."
      }
    },
    "version": 1
  },
  "userdoc": {
    "kind": "user",
    "methods": {},
    "version": 1
  }
}